{
  "_format": "hh-sol-artifact-1",
  "contractName": "Counter",
  "sourceName": "contracts/Counter.sol",
  "abi": [
    {
      "anonymous": false,
      "inputs": [
        {
          "indexed": false,
          "internalType": "uint256",
          "name": "counter",
          "type": "uint256"
        }
      ],
      "name": "CounterInc",
      "type": "event"
    },
    {
      "inputs": [],
      "name": "count",
      "outputs": [],
      "stateMutability": "nonpayable",
      "type": "function"
    },
    {
      "inputs": [],
      "name": "getCounter",
      "outputs": [
        {
          "internalType": "uint32",
          "name": "",
          "type": "uint32"
        }
      ],
      "stateMutability": "view",
      "type": "function"
    }
  ],
  "bytecode": "0x608060405234801561001057600080fd5b506103a9806100206000396000f3fe608060405234801561001057600080fd5b50600436106100365760003560e01c806306661abd1461003b5780638ada066e14610045575b600080fd5b610043610063565b005b61004d6100f6565b60405161005a91906101e3565b60405180910390f35b60008081548092919061007590610237565b91905055506100bb6040518060400160405280600e81526020017f436f756e746572206973206e6f770000000000000000000000000000000000008152506000546100ff565b7feec7b728df2430a6685bba924a4a787b147d45a2b38034570f9fe9613a91ea446000546040516100ec919061028f565b60405180910390a1565b60008054905090565b6101978282604051602401610115929190610343565b6040516020818303038152906040527f9710a9d0000000000000000000000000000000000000000000000000000000007bffffffffffffffffffffffffffffffffffffffffffffffffffffffff19166020820180517bffffffffffffffffffffffffffffffffffffffffffffffffffffffff838183161783525050505061019b565b5050565b60008151905060006a636f6e736f6c652e6c6f679050602083016000808483855afa5050505050565b600063ffffffff82169050919050565b6101dd816101c4565b82525050565b60006020820190506101f860008301846101d4565b92915050565b7f4e487b7100000000000000000000000000000000000000000000000000000000600052601160045260246000fd5b6000819050919050565b60006102428261022d565b91507fffffffffffffffffffffffffffffffffffffffffffffffffffffffffffffffff821415610275576102746101fe565b5b600182019050919050565b6102898161022d565b82525050565b60006020820190506102a46000830184610280565b92915050565b600081519050919050565b600082825260208201905092915050565b60005b838110156102e45780820151818401526020810190506102c9565b838111156102f3576000848401525b50505050565b6000601f19601f8301169050919050565b6000610315826102aa565b61031f81856102b5565b935061032f8185602086016102c6565b610338816102f9565b840191505092915050565b6000604082019050818103600083015261035d818561030a565b905061036c6020830184610280565b939250505056fea264697066735822122015e8fcef5bacb99103650bea7ce4618b48975ecc094a42608752a86bd168807764736f6c634300080a0033",
  "linkReferences": {},
  "deployedLinkReferences": {}
}